:020000040800F2
:10000000002800204D0B000851090008570900087E
:100010005D09000863090008690900080000000084
:100020000000000000000000000000006F09000850
:100030007B090008000000008709000893090008F8
:10004000950B0008950B0008950B0008950B000810
:10005000950B0008950B0008950B0008950B000800
:10006000950B0008950B0008950B0008950B0008F0
:10007000950B0008950B0008950B0008950B0008E0
:10008000950B0008950B0008950B0008950B0008D0
:10009000950B0008950B0008950B0008950B0008C0
:1000A000950B0008950B0008950B0008950B0008B0
:1000B000A1090008950B000800000000950B00083E
:1000C000950B00080000000000000000950B0008E0
:1000D00000000000950B0008B509000800000000B2
:1000E000950B0008950B0008950B00080000000018
:1000F0000000000000000000000000000000000000
:0C01000000000000000000005FF808F1A3
:10010C0010B5054C237833B9044B13B10448AFF345
:10011C0000800123237010BDB000002000000000FF
:10012C004C39000808B5034B1BB103490348AFF326
:10013C00008008BD00000000B40000204C3900080D
:10014C0080B400AF034B01221A6000BFBD4680BCD7
:10015C00704700BFCC00002080B500AF1F4B1B6860
:10016C001F4A13601F4B1B681C4A13604FF48051CD
:10017C001D4801F0A7F803461A461A4B1A60174B94
:10018C001A68184B1B689A4225D1144B1A68144BE9
:10019C001B689A421FD1124B1A68144B1B689A4267
:1001AC000DD00F4B1B68114A1360104B1B68002BB2
:1001BC0011D10F4B64221A60FFF7C2FF0BE00C4BFE
:1001CC001B68013B0A4A1360094B1B68002B02D1C8
:1001DC00064B01221A6000BF80BD00BF0400002046
:1001EC000800002000000020000801400C00002046
:1001FC001000002080B582B000AF00237B6081E04E
:10020C00454A7B6813441978444A7B6813440A4670
:10021C001A70434A7B6852F8232042497B6831F8B4
:10022C0013301946104601F04DF8034619463A4A68
:10023C007B6813440A461A70374A7B6813441A7851
:10024C0036497B680B441B789A4258D1324A7B68FA
:10025C0013441978344A7B6813440A461A70324A9C
:10026C007B6813441B78002B35D1304A7B6832F8FD
:10027C001330182B0ED82E4B1B68002B0AD02B4A90
:10028C007B6832F81330013399B2284A7B6822F824
:10029C00131009E0254A7B68002122F81310254A27
:1002AC007B68012142F82310234A7B6832F8133013
:1002BC00632B0AD8204A7B6832F81330013399B289
:1002CC001D4A7B6822F8131019E01C4A7B68134402
:1002DC0001221A7013E0184A7B68002122F81310CF
:1002EC00124A7B68002122F81310144A7B681344CD
:1002FC0000221A700F4A7B68002142F823107B6899
:10030C0001337B607B68032B7FF77AAF00BF00BFA4
:10031C000837BD4680BD00BFE8000020EC0000207F
:10032C002400002034000020E4000020FC00002009
:10033C00D0000020D4000020F4000020F0000020A9
:10034C0080B400AF034B4FF47C521A6100BFBD4622
:10035C0080BC7047000C014080B500AF00F016FC6B
:10036C0000F02CF800F0DCF800F064F800F0AEF8C7
:10037C000F4801F035FC0F4BFF225A61FFF7E0FFED
:10038C0000F0BAFB022000F049F94FF47A7000F04B
:10039C005FF94FF47A7000F075F94FF47A7000F051
:1003AC008BF9FA2000F0A2F9034802F075FEFEE783
:1003BC0038010020000801406439000880B590B075
:1003CC0000AF07F1180328220021184602F0EEFDB9
:1003DC003B1D00221A605A609A60DA601A6102238F
:1003EC00BB610123BB621023FB6200237B6307F11B
:1003FC001803184600F096FF0346002B01D000F0BE
:10040C00F1F80F237B600023BB600023FB6000230B
:10041C003B6100237B613B1D0021184601F002FA71
:10042C000346002B01D000F0DDF800BF4037BD467D
:10043C0080BD000080B586B000AF07F10803002234
:10044C001A605A609A60DA603B4600221A605A6061
:10045C001D4B4FF080421A601B4B41F63F725A60A5
:10046C00194B00229A60184B0922DA60164B0022B5
:10047C001A61154B00229A61134801F061FB034687
:10048C00002B01D000F0AEF84FF48053BB6007F1A5
:10049C00080319460C4801F0F7FC0346002B01D069
:1004AC0000F0A0F800233B6000237B603B4619461C
:1004BC00054801F0C3FE0346002B01D000F092F872
:1004CC0000BF1837BD4680BD3801002080B500AF95
:1004DC00114B124A1A60104B4FF416525A600E4BC5
:1004EC0000229A600C4B0022DA600B4B00221A613E
:1004FC00094B0C225A61084B00229A61064B0022D0
:10050C00DA61054801F004FF0346002B01D000F02E
:10051C0069F800BF80BD00BF80010020004400408E
:10052C0080B586B000AF07F1080300221A605A604C
:10053C009A60DA60284B9B69274A43F00403936165
:10054C00254B9B6903F004037B607B68224B9B6902
:10055C00214A43F0080393611F4B9B6903F0080386
:10056C003B603B680022F0211C4800F0C2FE0022D8
:10057C0043F6FF711A4800F0BCFEF023BB60012368
:10058C00FB6000233B6102237B6107F108031946E2
:10059C00124800F01DFD43F6FF73BB600123FB60A6
:1005AC0000233B6102237B6107F1080319460C48C9
:1005BC0000F00EFD4FF47043BB600023FB60012381
:1005CC003B6107F108031946044800F001FD00BF28
:1005DC001837BD4680BD00BF001002400008014026
:1005EC00000C014080B400AF72B600BFFEE7000003
:1005FC0080B584B000AFF860B9607A607B689AB25D
:10060C004FF0FF33B968044801F0D2FE7B681846FE
:10061C001037BD4680BD00BF8001002080B483B080
:10062C0000AF7860074B1B687A6892FBF3F3064ABD
:10063C001360064B00221A6000BF0C37BD4680BC0D
:10064C00704700BF3C00002018010020040100206E
:10065C0080B483B000AF7860074B1B687A6892FB5C
:10066C00F3F3064A1360064B00221A6000BF0C37E6
:10067C00BD4680BC704700BF3C0000201C01002020
:10068C000801002080B483B000AF7860074B1B6872
:10069C007A6892FBF3F3064A1360064B00221A6049
:1006AC0000BF0C37BD4680BC704700BF3C0000202B
:1006BC00200100200C01002080B483B000AF7860D2
:1006CC00074B1B687A6892FBF3F3064A1360064BE0
:1006DC0000221A6000BF0C37BD4680BC704700BFBB
:1006EC003C000020240100201001002080B483B0C5
:1006FC0000AF7860074B1B687A6892FBF3F3064AED
:10070C001360064B00221A6000BF0C37BD4680BC3C
:10071C00704700BF3C00002028010020140100207D
:10072C0080B400AF294B1B68002B0BDD274B1B68DB
:10073C00013B264A1360254B1B68002B02DC244B23
:10074C0001221A60234B1B68002B0BDD214B1B680D
:10075C00013B204A13601F4B1B68002B02DC1E4B15
:10076C0001221A601D4B1B68002B0BDD1B4B1B68F9
:10077C00013B1A4A1360194B1B68002B02DC184B07
:10078C0001221A60174B1B68002B0BDD154B1B68E5
:10079C00013B144A1360134B1B68002B02DC124BF9
:1007AC0001221A60114B1B68002B0BDD0F4B1B68D1
:1007BC00013B0E4A13600D4B1B68002B02DC0C4BEB
:1007CC0001221A6000BFBD4680BC70471801002092
:1007DC00040100201C010020080100202001002041
:1007EC000C01002024010020100100202801002011
:1007FC001401002080B485B000AF154B9B69144ADE
:10080C0043F001039361124B9B6903F00103BB603E
:10081C00BB680F4BDB690E4A43F08053D3610C4B22
:10082C00DB6903F080537B607B680A4B5B68FB6081
:10083C00FB6823F0E063FB60FB6843F08063FB60C4
:10084C00044AFB68536000BF1437BD4680BC704738
:10085C00001002400000014080B584B000AF786009
:10086C007B681B68B3F1804F13D10C4BDB690B4ACF
:10087C0043F00103D361094BDB6903F00103FB6017
:10088C00FB68002200211C2000F0B9FA1C2000F0AB
:10089C00D2FA00BF1037BD4680BD00BF0010024029
:1008AC0080B588B000AF786007F1100300221A60A1
:1008BC005A609A60DA607B681B681F4A934237D192
:1008CC001E4BDB691D4A43F40033D3611B4BDB69C0
:1008DC0003F40033FB60FB68184B9B69174A43F029
:1008EC0004039361154B9B6903F00403BB60BB6865
:1008FC0004233B6102237B610323FB6107F110039B
:10090C0019460F4800F064FB08233B6100237B6110
:10091C000023BB6107F110031946094800F058FB8E
:10092C0000220021262000F06AFA262000F083FA2B
:10093C0000BF2037BD4680BD00440040001002407F
:10094C000008014080B400AFFEE780B400AFFEE7C2
:10095C0080B400AFFEE780B400AFFEE780B400AF18
:10096C00FEE780B400AF00BFBD4680BC704780B4CA
:10097C0000AF00BFBD4680BC704780B400AF00BF65
:10098C00BD4680BC704780B500AF00F045F900BF94
:10099C0080BD000080B500AF024801F06DF900BFCA
:1009AC0080BD00BF3801002080B500AF024801F0C7
:1009BC0083FD00BF80BD00BF8001002080B586B0E4
:1009CC0000AFF860B9607A6000237B610AE0AFF396
:1009DC0000800146BB685A1CBA60CAB21A707B69A7
:1009EC0001337B617A697B689A42F0DB7B6818463D
:1009FC001837BD4680BD80B483B000AF78604FF02F
:100A0C00FF3318460C37BD4680BC704780B483B0AA
:100A1C0000AF786039603B684FF400525A60002395
:100A2C0018460C37BD4680BC704780B483B000AF0D
:100A3C007860012318460C37BD4680BC704780B4E3
:100A4C0085B000AFF860B9607A600023184614379F
:100A5C00BD4680BC7047000080B586B000AF7860A2
:100A6C00144A154BD31A7B617B693B61134B1B6892
:100A7C00002B02D1114B124A1A60104B1A687B687A
:100A8C0013443A699A4207D202F066FA03460C22E2
:100A9C001A604FF0FF3309E0084B1B68FB60074BF3
:100AAC001A687B681344054A1360FB6818461837AC
:100ABC00BD4680BD00280020000400002C01002051
:100ACC00E001002080B400AF00BFBD4680BC704781
:100ADC0080B582B000AF78607B681B68B3F1804F43
:100AEC0005D1FFF787FBFFF71BFEFFF735FB00BFB8
:100AFC000837BD4680BD000080B500AF0B4B1B68AE
:100B0C000B4A13600B4B1B680B4A1360FFF718FC66
:100B1C0000224FF48071094800F0EBFB00224FF4E7
:100B2C000051064800F0E5FB00BF80BD1800002016
:100B3C001C0000201400002020000020000C0140AC
:100B4C00FFF7C0FF0B480C490C4A002302E0D458B5
:100B5C00C4500433C4188C42F9D3094A094C0023FD
:100B6C0001E013600432A242FBD302F0FBF9FFF761
:100B7C00F3FB704700000020B0000020283A00086A
:100B8C00B0000020DC010020FEE7000080B500AFC3
:100B9C00084B1B68074A43F010031360032000F056
:100BAC0023F90F2000F008F8FFF724FE0023184665
:100BBC0080BD00BF0020024080B582B000AF7860DD
:100BCC00124B1A68124B1B7819464FF47A73B3FB0D
:100BDC00F1F3B2FBF3F3184600F03BF90346002B9C
:100BEC0001D001230EE07B680F2B0AD80022796814
:100BFC004FF0FF3000F003F9064A7B6813600023C6
:100C0C0000E0012318460837BD4680BD4000002097
:100C1C00480000204400002080B400AF054B1B7836
:100C2C001A46054B1B681344034A136000BFBD46AC
:100C3C0080BC704748000020C801002080B400AF81
:100C4C00024B1B681846BD4680BC7047C80100208B
:100C5C0080B485B000AF78607B6803F00703FB605D
:100C6C000C4BDB68BB60BA684FF6FF031340BB60EC
:100C7C00FB681A02BB68134343F0BF6343F40033B1
:100C8C00BB60044ABB68D36000BF1437BD4680BC50
:100C9C00704700BF00ED00E080B400AF044BDB6890
:100CAC001B0A03F007031846BD4680BC704700BF03
:100CBC0000ED00E080B483B000AF0346FB7197F900
:100CCC000730002B0BDBFB7903F01F02064997F969
:100CDC0007305B09012000FA02F241F8232000BF23
:100CEC000C37BD4680BC704700E100E080B483B097
:100CFC0000AF03463960FB7197F90730002B0ADB14
:100D0C003B68DAB20C4997F907301201D2B20B44A6
:100D1C0083F800230AE03B68DAB20849FB7903F058
:100D2C000F03043B1201D2B20B441A7600BF0C37EE
:100D3C00BD4680BC704700BF00E100E000ED00E064
:100D4C0080B489B000AFF860B9607A60FB6803F0DA
:100D5C000703FB61FB69C3F10703042B28BF0423C2
:100D6C00BB61FB690433062B02D9FB69033B00E032
:100D7C0000237B614FF0FF32BB6902FA03F3DA43C5
:100D8C00BB681A407B699A404FF0FF317B6901FACE
:100D9C0003F3D9437B680B40134318462437BD46F5
:100DAC0080BC704780B582B000AF78607B68013B37
:100DBC00B3F1807F01D301230FE00A4A7B68013B2A
:100DCC0053600F214FF0FF30FFF790FF054B0022CF
:100DDC009A60044B07221A60002318460837BD4658
:100DEC0080BD00BF10E000E080B582B000AF78603D
:100DFC007868FFF72DFF00BF0837BD4680BD80B572
:100E0C0086B000AF0346B9607A60FB7300237B6148
:100E1C00FFF742FF78617A68B9687869FFF790FF4D
:100E2C00024697F90F3011461846FFF75FFF00BFD7
:100E3C001837BD4680BD80B582B000AF0346FB714C
:100E4C0097F907301846FFF735FF00BF0837BD4646
:100E5C0080BD80B582B000AF78607868FFF7A2FFE4
:100E6C00034618460837BD4680BD80B485B000AF38
:100E7C0078600023FB737B6893F82130DBB2022B84
:100E8C0008D07B6804229A637B68002283F82020B8
:100E9C00012320E07B681B681A687B681B6822F0C2
:100EAC000E021A607B681B681A687B681B6822F04C
:100EBC0001021A607B681A6C7B68DB6B012101FAFA
:100ECC0002F25A607B68012283F821207B680022A1
:100EDC0083F82020FB7B18461437BD4680BC704736
:100EEC0080B584B000AF78600023FB737B6893F807
:100EFC002130DBB2022B05D07B6804229A630123DC
:100F0C00FB7351E07B681B681A687B681B6822F0D6
:100F1C000E021A607B681B681A687B681B6822F0DB
:100F2C0001021A607B681B68224A934229D07B68B5
:100F3C001B68214A934222D07B681B681F4A93424C
:100F4C001AD07B681B681E4A934212D07B681B68C0
:100F5C001C4A93420AD07B681B681B4A934202D1FD
:100F6C004FF480130EE04FF080730BE04FF480339E
:100F7C0008E04FF4805305E04FF4807302E0102337
:100F8C0000E00123114A53607B68012283F8212081
:100F9C007B68002283F820207B685B6B002B03D0DE
:100FAC007B685B6B78689847FB7B18461037BD46AF
:100FBC0080BD00BF080002401C000240300002400F
:100FCC0044000240580002406C0002400000024005
:100FDC0080B48BB000AF7860396000237B62002353
:100FEC003B6248E101227B6A02FA03F3FB613B6836
:100FFC001B68FA691340BB61BA69FB699A4240F0FD
:10100C0037813B685B68A34A93425ED0A14A934206
:10101C0075D8A14A934258D09F4A93426FD89F4AA1
:10102C00934252D09D4A934269D89D4A93424CD0E8
:10103C009B4A934263D89B4A934246D0994A934227
:10104C005DD8122B2AD8122B59D801A252F823F0B2
:10105C00D7100008B1100008C310000805110008D3
:10106C000B1100080B1100080B1100080B110008E4
:10107C000B1100080B1100080B1100080B110008D4
:10108C000B1100080B1100080B1100080B110008C4
:10109C000B110008B9100008CD100008824A9342C9
:1010AC0013D02CE03B68DB683B6229E03B68DB68D3
:1010BC0004333B6224E03B68DB6808333B621FE08F
:1010CC003B68DB680C333B621AE03B689B68002B87
:1010DC0002D104233B6213E03B689B68012B05D1D2
:1010EC0008233B627B68FA691A6109E008233B62BA
:1010FC007B68FA695A6103E000233B6200E000BFA1
:10110C00BB69FF2B01D87B6801E07B6804337B61F2
:10111C00BB69FF2B02D87B6A9B0002E07B6A083B11
:10112C009B003B617B691A680F213B6901FA03F351
:10113C00DB431A40396A3B6901FA03F31A437B69B2
:10114C001A603B685B6803F08053002B00F09080C2
:10115C00564B9B69554A43F001039361534B9B6972
:10116C0003F00103BB60BB68514A7B6A9B080233E6
:10117C0052F82330FB607B6A03F003039B000F22C1
:10118C0002FA03F3DB43FA681340FB607B68494ABD
:10119C0093420DD07B68484A934207D07B68474AFC
:1011AC00934201D1022304E0032302E0012300E077
:1011BC0000237A6A02F0030292009340FA68134308
:1011CC00FB603B497B6A9B080233FA6841F8232099
:1011DC003B685B6803F48013002B06D0384B9A688D
:1011EC003749BB6913438B6006E0354B9A68BB6982
:1011FC00DB43334913408B603B685B6803F400139B
:10120C00002B06D02E4BDA682D49BB691343CB60FB
:10121C0006E02B4BDA68BB69DB4329491340CB60F2
:10122C003B685B6803F40033002B06D0244B5A68F0
:10123C002349BB6913434B6006E0214B5A68BB69D9
:10124C00DB431F4913404B603B685B6803F48033FE
:10125C00002B06D01A4B1A681949BB6913430B6053
:10126C0006E0174B1A68BB69DB43154913400B604A
:10127C007B6A01337B623B681A687B6A22FA03F350
:10128C00002B7FF4AFAE00BF00BF2C37BD4680BC37
:10129C00704700BF00003210000031100000221017
:1012AC00000021100000121000001110001002406C
:1012BC000000014000080140000C014000100140FA
:1012CC000004014080B485B000AF78600B467B8091
:1012DC007B689A687B881340002B02D00123FB7338
:1012EC0001E00023FB73FB7B18461437BD4680BC22
:1012FC00704780B483B000AF78600B467B80134698
:10130C007B707B78002B03D07A887B681A6103E0B2
:10131C007B881A047B681A6100BF0C37BD4680BC01
:10132C007047000080B586B000AF78607B68002BFA
:10133C0001D101236CE27B681B6803F00103002BD5
:10134C0000F08780924B5B6803F00C03042B0CD0ED
:10135C008F4B5B6803F00C03082B12D18C4B5B6832
:10136C0003F48033B3F5803F0BD1894B1B6803F436
:10137C000033002B6CD07B685B68002B68D1012399
:10138C0046E27B685B68B3F5803F06D1804B1B68F7
:10139C007F4A43F4803313602EE07B685B68002B3C
:1013AC000CD17B4B1B687A4A23F480331360784B47
:1013BC001B68774A23F4802313601DE07B685B680D
:1013CC00B3F5A02F0CD1724B1B68714A43F48023E8
:1013DC0013606F4B1B686E4A43F4803313600BE051
:1013EC006B4B1B686A4A23F480331360684B1B6891
:1013FC00674A23F4802313607B685B68002B13D04F
:10140C00FFF71CFC386108E0FFF718FC02463B694B
:10141C00D31A642B01D90323FAE15D4B1B6803F447
:10142C000033002BF0D014E0FFF708FC386108E023
:10143C00FFF704FC02463B69D31A642B01D9032342
:10144C00E6E1534B1B6803F40033002BF0D100E0B2
:10145C0000BF7B681B6803F00203002B63D04C4B6E
:10146C005B6803F00C03002B0BD0494B5B6803F05B
:10147C000C03082B1CD1464B5B6803F48033002B08
:10148C0016D1434B1B6803F00203002B05D07B687D
:10149C001B69012B01D00123BAE13D4B1B6823F0E2
:1014AC00F8027B685B69DB00394913430B603AE057
:1014BC007B681B69002B20D0364B01221A60FFF78A
:1014CC00BDFB386108E0FFF7B9FB02463B69D31A54
:1014DC00022B01D903239BE12D4B1B6803F0020364
:1014EC00002BF0D02A4B1B6823F0F8027B685B6959
:1014FC00DB00274913430B6015E0264B00221A60D2
:10150C00FFF79CFB386108E0FFF798FB02463B694C
:10151C00D31A022B01D903237AE11D4B1B6803F06C
:10152C000203002BF0D17B681B6803F00803002B2F
:10153C003AD07B689B69002B19D0174B01221A609B
:10154C00FFF77CFB386108E0FFF778FB02463B694C
:10155C00D31A022B01D903235AE10D4B5B6A03F01A
:10156C000203002BF0D0012000F0CCFA1CE00A4B57
:10157C0000221A60FFF762FB38610FE0FFF75EFB99
:10158C0002463B69D31A022B08D9032340E100BF62
:10159C000010024000004242800442429E4B5B6AB3
:1015AC0003F00203002BE9D17B681B6803F00403F2
:1015BC00002B00F0A6800023FB75974BDB6903F032
:1015CC008053002B0DD1944BDB69934A43F080532D
:1015DC00D361914BDB6903F08053BB60BB68012383
:1015EC00FB758E4B1B6803F48073002B18D18B4B4F
:1015FC001B688A4A43F480731360FFF71FFB386142
:10160C0008E0FFF71BFB02463B69D31A642B01D998
:10161C000323FDE0814B1B6803F48073002BF0D097
:10162C007B68DB68012B06D17B4B1B6A7A4A43F043
:10163C00010313622DE07B68DB68002B0CD1764B29
:10164C001B6A754A23F001031362734B1B6A724ABF
:10165C0023F0040313621CE07B68DB68052B0CD1C0
:10166C006D4B1B6A6C4A43F0040313626A4B1B6A92
:10167C00694A43F0010313620BE0674B1B6A664A2D
:10168C0023F001031362644B1B6A634A23F00403C7
:10169C0013627B68DB68002B15D0FFF7CFFA38613B
:1016AC000AE0FFF7CBFA02463B69D31A41F28832C3
:1016BC00934201D90323ABE0574B1B6A03F002039F
:1016CC00002BEED014E0FFF7B9FA38610AE0FFF70F
:1016DC00B5FA02463B69D31A41F28832934201D9DA
:1016EC00032395E04C4B1B6A03F00203002BEED155
:1016FC00FB7D012B05D1484BDB69474A23F0805316
:10170C00D3617B68DB69002B00F08180424B5B6806
:10171C0003F00C03082B61D07B68DB69022B46D1EC
:10172C003F4B00221A60FFF789FA386108E0FFF797
:10173C0085FA02463B69D31A022B01D9032367E0D1
:10174C00354B1B6803F00073002BF0D17B681B6AD0
:10175C00B3F5803F08D1304B5B6823F400327B68D3
:10176C009B682D4913434B602B4B5B6823F474121D
:10177C007B68196A7B685B6A0B43274913434B6090
:10178C00274B01221A60FFF759FA386108E0FFF77E
:10179C0055FA02463B69D31A022B01D9032337E0D1
:1017AC001D4B1B6803F00073002BF0D02FE01C4B7B
:1017BC0000221A60FFF742FA386108E0FFF73EFAA0
:1017CC0002463B69D31A022B01D9032320E0124BAA
:1017DC001B6803F00073002BF0D118E07B68DB6909
:1017EC00012B01D1012313E00B4B5B68FB60FB6801
:1017FC0003F480327B681B6A9A4206D1FB6803F4BF
:10180C0070127B685B6A9A4201D0012300E00023CE
:10181C0018461837BD4680BD0010024000700040CD
:10182C006000424280B584B000AF786039607B685C
:10183C00002B01D10123D0E06A4B1B6803F0070396
:10184C003A689A4210D9674B1B6823F00702654926
:10185C003B6813430B60634B1B6803F007033A6848
:10186C009A4201D00123B8E07B681B6803F00203A5
:10187C00002B20D07B681B6803F00403002B05D0E1
:10188C00594B5B68584A43F4E06353607B681B68B0
:10189C0003F00803002B05D0534B5B68524A43F40A
:1018AC0060535360504B5B6823F0F0027B689B687D
:1018BC004D4913434B607B681B6803F00103002BFD
:1018CC0040D07B685B68012B07D1474B1B6803F446
:1018DC000033002B15D101237FE07B685B68022B62
:1018EC0007D1414B1B6803F00073002B09D1012376
:1018FC0073E03D4B1B6803F00203002B01D1012365
:10190C006BE0394B5B6823F003027B685B683649FC
:10191C0013434B60FFF792F9F8600AE0FFF78EF97A
:10192C000246FB68D31A41F28832934201D9032351
:10193C0053E02D4B5B6803F00C027B685B689B00EB
:10194C009A42EBD1274B1B6803F007033A689A4283
:10195C0010D2244B1B6823F0070222493B68134327
:10196C000B60204B1B6803F007033A689A4201D0C6
:10197C00012332E07B681B6803F00403002B08D0C2
:10198C00194B5B6823F4E0627B68DB6816491343F0
:10199C004B607B681B6803F00803002B09D0124BCB
:1019AC005B6823F460527B681B69DB000E491343B0
:1019BC004B6000F021F802460B4B5B681B0903F0EF
:1019CC000F030A49CB5C22FA03F3094A1360094B53
:1019DC001B681846FFF7F0F8002318461037BD4671
:1019EC0080BD00BF0020024000100240903900086A
:1019FC00400000204400002080B487B000AF0023DA
:101A0C00FB600023BB6000237B6100237B60002311
:101A1C003B611E4B5B68FB60FB6803F00C03042B03
:101A2C0002D0082B03D027E0194B3B6127E0FB6861
:101A3C009B0C03F00F03174AD35C7B60FB6803F429
:101A4C008033002B10D0114B5B685B0C03F001034F
:101A5C00114AD35CBB607B680D4A02FB03F2BB6886
:101A6C00B2FBF3F37B6104E07B680C4A02FB03F3EB
:101A7C007B617B693B6102E0054B3B6100BF3B69CD
:101A8C0018461C37BD4680BC704700BF0010024092
:101A9C0000127A00A8390008B839000800093D0086
:101AAC0080B400AF024B1B681846BD4680BC704723
:101ABC004000002080B500AFFFF7F2FF0246054B57
:101ACC005B681B0A03F007030349CB5C22FA03F3A0
:101ADC00184680BD00100240A039000880B500AF48
:101AEC00FFF7DEFF0246054B5B68DB0A03F00703DA
:101AFC000349CB5C22FA03F3184680BD0010024068
:101B0C00A039000880B485B000AF78600A4B1B6820
:101B1C000A4AA2FB03235B0A7A6802FB03F3FB600D
:101B2C0000BFFB685A1EFA60002BF9D100BF00BF42
:101B3C001437BD4680BC704740000020D34D621066
:101B4C0080B582B000AF78607B68002B01D1012397
:101B5C0041E07B6893F83D30DBB2002B06D17B680B
:101B6C00002283F83C207868FEF776FE7B68022220
:101B7C0083F83D207B681A687B680433194610464D
:101B8C0000F06EFA7B68012283F846207B68012204
:101B9C0083F83E207B68012283F83F207B6801227A
:101BAC0083F840207B68012283F841207B68012266
:101BBC0083F842207B68012283F843207B68012252
:101BCC0083F844207B68012283F845207B6801223E
:101BDC0083F83D20002318460837BD4680BD000021
:101BEC0080B485B000AF78607B6893F83D30DBB291
:101BFC00012B01D0012335E07B68022283F83D20C4
:101C0C007B681B68DA687B681B6842F00102DA604B
:101C1C007B681B68164A934209D07B681B68B3F13A
:101C2C00804F04D07B681B68124A934211D17B68A9
:101C3C001B689B6803F00703FB60FB68062B10D046
:101C4C007B681B681A687B681B6842F001021A608B
:101C5C0007E07B681B681A687B681B6842F001020E
:101C6C001A60002318461437BD4680BC704700BF6D
:101C7C00002C01400004004080B582B000AF7860B9
:101C8C007B681B681B6903F00203022B22D17B6863
:101C9C001B68DB6803F00203022B1BD17B681B68FB
:101CAC006FF002021A617B6801221A777B681B684D
:101CBC009B6903F00303002B03D0786800F0B4F9A0
:101CCC0005E0786800F0A7F9786800F0B6F97B6851
:101CDC0000221A777B681B681B6903F00403042B32
:101CEC0022D17B681B68DB6803F00403042B1BD137
:101CFC007B681B686FF004021A617B6802221A77FA
:101D0C007B681B689B6903F44073002B03D07868D5
:101D1C0000F08AF905E0786800F07DF9786800F049
:101D2C008CF97B6800221A777B681B681B6903F0AF
:101D3C000803082B22D17B681B68DB6803F00803BF
:101D4C00082B1BD17B681B686FF008021A617B683B
:101D5C0004221A777B681B68DB6903F00303002BF2
:101D6C0003D0786800F060F905E0786800F053F96A
:101D7C00786800F062F97B6800221A777B681B6830
:101D8C001B6903F01003102B22D17B681B68DB68E6
:101D9C0003F01003102B1BD17B681B686FF0100233
:101DAC001A617B6808221A777B681B68DB6903F46D
:101DBC004073002B03D0786800F036F905E07868A2
:101DCC0000F029F9786800F038F97B6800221A775E
:101DDC007B681B681B6903F00103012B0ED17B6828
:101DEC001B68DB6803F00103012B07D17B681B68C0
:101DFC006FF001021A617868FEF76AFE7B681B6857
:101E0C001B6903F08003802B0ED17B681B68DB6899
:101E1C0003F08003802B07D17B681B686FF0800276
:101E2C001A61786800F06BFA7B681B681B6903F019
:101E3C004003402B0ED17B681B68DB6803F040032A
:101E4C00402B07D17B681B686FF040021A617868E1
:101E5C0000F0FCF87B681B681B6903F02003202B47
:101E6C000ED17B681B68DB6803F02003202B07D1A5
:101E7C007B681B686FF020021A61786800F036FAF4
:101E8C0000BF0837BD4680BD80B584B000AF786018
:101E9C0039600023FB737B6893F83C30012B01D134
:101EAC000223B4E07B68012283F83C207B68022289
:101EBC0083F83D207B681B689B68BB60BB6823F084
:101ECC007703BB60BB6823F47F43BB607B681B68F4
:101EDC00BA689A603B681B68B3F5005F3ED0B3F5F7
:101EEC00005F00F28780B3F5805F00F08680B3F569
:101EFC00805F7FD8702B1AD0702B7BD8602B50D082
:101F0C00602B77D8502B3CD0502B73D8402B58D00B
:101F1C00402B6FD8302B64D0302B6BD8202B60D05B
:101F2C00202B67D8002B5CD0102B5AD062E07B683A
:101F3C0018683B6899683B685A683B68DB6800F036
:101F4C005EF97B681B689B68BB60BB6843F07703DA
:101F5C00BB607B681B68BA689A604FE07B68186846
:101F6C003B6899683B685A683B68DB6800F047F946
:101F7C007B681B689A687B681B6842F480429A6095
:101F8C003CE07B6818683B6859683B68DB681A461C
:101F9C0000F0BEF87B681B685021184600F015F95C
:101FAC002CE07B6818683B6859683B68DB681A460C
:101FBC0000F0DCF87B681B686021184600F005F91E
:101FCC001CE07B6818683B6859683B68DB681A46FC
:101FDC0000F09EF87B681B684021184600F0F5F86D
:101FEC000CE07B681A683B681B681946104600F0C9
:101FFC00ECF803E00123FB7300E000BF7B680122D7
:10200C0083F83D207B68002283F83C20FB7B18463C
:10201C001037BD4680BD80B483B000AF786000BF80
:10202C000C37BD4680BC704780B483B000AF78607D
:10203C0000BF0C37BD4680BC704780B483B000AF86
:10204C00786000BF0C37BD4680BC704780B483B04D
:10205C0000AF786000BF0C37BD4680BC70470000F5
:10206C0080B485B000AF786039607B681B68FB601A
:10207C007B68254A934207D07B68B3F1804F03D02D
:10208C007B68224A934208D1FB6823F07003FB6003
:10209C003B685B68FA681343FB607B681A4A93429F
:1020AC0007D07B68B3F1804F03D07B68174A93420B
:1020BC0008D1FB6823F44073FB603B68DB68FA686B
:1020CC001343FB60FB6823F080023B685B6913439E
:1020DC00FB607B68FA681A603B689A687B68DA6216
:1020EC003B681A687B689A627B68074A934203D103
:1020FC003B681A697B681A637B6801225A6100BFCE
:10210C001437BD4680BC7047002C014000040040D1
:10211C0080B487B000AFF860B9607A60FB681B6A66
:10212C007B61FB681B6A23F00102FB681A62FB6887
:10213C009B693B613B6923F0F0033B617B681B01AE
:10214C003A6913433B617B6923F00A037B617A692B
:10215C00BB6813437B61FB683A699A61FB687A69D7
:10216C001A6200BF1C37BD4680BC704780B487B074
:10217C0000AFF860B9607A60FB681B6A7B61FB6832
:10218C001B6A23F01002FB681A62FB689B693B61B7
:10219C003B6923F470433B617B681B033A6913432F
:1021AC003B617B6923F0A0037B61BB681B017A69EF
:1021BC0013437B61FB683A699A61FB687A691A621E
:1021CC0000BF1C37BD4680BC704780B485B000AFE3
:1021DC00786039607B689B68FB60FB6823F0700358
:1021EC00FB603A68FB68134343F00703FB607B68B2
:1021FC00FA689A6000BF1437BD4680BC704780B443
:10220C0087B000AFF860B9607A603B60FB689B6890
:10221C007B617B6923F47F437B613B681A027B689B
:10222C001A43BB6813437A6913437B61FB687A6971
:10223C009A6000BF1C37BD4680BC704780B485B027
:10224C0000AF786039607B6893F83C30012B01D18A
:10225C00022341E07B68012283F83C207B68022248
:10226C0083F83D207B681B685B68FB607B681B68A0
:10227C009B68BB60FB6823F07003FB603B681B68CA
:10228C00FA681343FB607B681B68FA685A607B68CA
:10229C001B68144A934209D07B681B68B3F1804FCA
:1022AC0004D07B681B68104A93420CD1BB6823F0A6
:1022BC008003BB603B685B68BA681343BB607B6898
:1022CC001B68BA689A607B68012283F83D207B68A2
:1022DC00002283F83C20002318461437BD4680BCEE
:1022EC00704700BF002C01400004004080B483B054
:1022FC0000AF786000BF0C37BD4680BC704780B41F
:10230C0083B000AF786000BF0C37BD4680BC70470F
:10231C0080B582B000AF78607B68002B01D10123BF
:10232C0042E07B6893F84130DBB2002B06D17B682E
:10233C00002283F840207868FEF7B2FA7B682422EA
:10234C0083F841207B681B68DA687B681B6822F481
:10235C000052DA60786800F071FD7B681B681A69BE
:10236C007B681B6822F490421A617B681B685A696F
:10237C007B681B6822F02A025A617B681B68DA684A
:10238C007B681B6842F40052DA607B6800225A6456
:10239C007B68202283F841207B68202283F842202E
:1023AC007B6800225A63002318460837BD4680BD5F
:1023BC0080B58AB002AFF860B9603B601346FB8011
:1023CC0000237B61FB6893F84130DBB2202B6DD18D
:1023DC00BB68002B02D0FB88002B01D1012366E0E7
:1023EC00FB6800225A64FB68212283F84120FEF727
:1023FC0025FC7861FB68FA889A84FB68FA88DA8491
:10240C00FB689B68B3F5805F08D1FB681B69002BE8
:10241C0004D10023FB61BB68BB6103E0BB68FB61BB
:10242C000023BB612AE03B6800937B69002280217A
:10243C00F86800F0F9FA0346002B01D0032336E0CC
:10244C00FB69002B0BD1BB691B881A46FB681B6808
:10245C00C2F308025A60BB690233BB6107E0FB6937
:10246C001A78FB681B685A60FB690133FB61FB68D7
:10247C00DB8C9BB2013B9AB2FB68DA84FB68DB8C89
:10248C009BB2002BCFD13B6800937B69002240218B
:10249C00F86800F0C9FA0346002B01D0032306E0CC
:1024AC00FB68202283F84120002300E00223184619
:1024BC002037BD4680BD000080B5BAB000AF786053
:1024CC007B681B681B68C7F8E4307B681B68DB689B
:1024DC00C7F8E0307B681B685B69C7F8DC30002309
:1024EC00C7F8D8300023C7F8D430D7F8E43003F05D
:1024FC000F03C7F8D830D7F8D830002B0FD1D7F846
:10250C00E43003F02003002B09D0D7F8E03003F0BF
:10251C002003002B03D0786800F0D1FB5BE2D7F8E6
:10252C00D830002B00F0DE80D7F8DC3003F001034C
:10253C00002B06D1D7F8E03003F49073002B00F099
:10254C00D180D7F8E43003F00103002B0BD0D7F87F
:10255C00E03003F48073002B05D07B685B6C43F098
:10256C0001027B685A64D7F8E43003F00403002BB3
:10257C000BD0D7F8DC3003F00103002B05D07B68BF
:10258C005B6C43F002027B685A64D7F8E43003F0CA
:10259C000203002B0BD0D7F8DC3003F00103002B27
:1025AC0005D07B685B6C43F004027B685A64D7F8F7
:1025BC00E43003F00803002B11D0D7F8E03003F01F
:1025CC002003002B05D1D7F8DC3003F00103002BDE
:1025DC0005D07B685B6C43F008027B685A647B68AF
:1025EC005B6C002B00F0F281D7F8E43003F0200391
:1025FC00002B08D0D7F8E03003F02003002B02D0DA
:10260C00786800F05CFB7B681B685B6903F0400337
:10261C00002B14BF01230023DBB2C7F8D4307B6836
:10262C005B6C03F00803002B03D1D7F8D430002BDC
:10263C004FD0786800F066FA7B681B685B6903F022
:10264C004003002B41D07B681B681433C7F89C30C7
:10265C00D7F89C3053E8003FC7F89830D7F898303B
:10266C0023F04003C7F8D0307B681B681433D7F8CD
:10267C00D020C7F8A820C7F8A430D7F8A410D7F8F2
:10268C00A82041E80023C7F8A030D7F8A030002BD1
:10269C00D9D17B68DB6B002B13D07B68DB6B7E4A5C
:1026AC005A637B68DB6B1846FEF71AFC0346002B5B
:1026BC0016D07B68DB6B5B6B7A68D26B10469847E5
:1026CC000EE0786800F09CF90AE0786800F098F960
:1026DC0006E0786800F094F97B6800225A6475E192
:1026EC0000BF73E17B681B6B012B40F04F81D7F867
:1026FC00E43003F01003002B00F04881D7F8E030F1
:10270C0003F01003002B00F041810023BB607B68B9
:10271C001B681B68BB607B681B685B68BB60BB6825
:10272C007B681B685B6903F04003002B00F0B680EC
:10273C007B68DB6B1B685B68A7F8BE30B7F8BE30F4
:10274C00002B00F045817B689B8DB7F8BE209A4228
:10275C0080F03E817B68B7F8BE20DA857B68DB6B46
:10276C009B69202B00F088807B681B680C33C7F8B2
:10277C008830D7F8883053E8003FC7F88430D7F852
:10278C00843023F48073C7F8B8307B681B680C3333
:10279C00D7F8B820C7F89420C7F89030D7F8901025
:1027AC00D7F8942041E80023C7F88C30D7F88C3048
:1027BC00002BD9D17B681B6814337B677B6F53E884
:1027CC00003F3B673B6F23F00103C7F8B4307B68D5
:1027DC001B681433D7F8B420C7F88020FB67F96F57
:1027EC00D7F8802041E80023BB67BB6F002BE1D1F9
:1027FC007B681B6814333B663B6E53E8003FFB65FC
:10280C00FB6D23F04003C7F8B0307B681B681433B2
:10281C00D7F8B020FA66BB66B96EFA6E41E80023B1
:10282C007B667B6E002BE3D17B68202283F84220F1
:10283C007B6800221A637B681B680C33FB64FB6C9F
:10284C0053E8003FBB64BB6C23F01003C7F8AC30FB
:10285C007B681B680C33D7F8AC20BA657B65796D47
:10286C00BA6D41E800233B653B6D002BE3D17B68DF
:10287C00DB6B1846FEF7F9FA7B6802225A637B6819
:10288C009A8D7B68DB8D9BB2D31A9BB21946786804
:10289C0000F0BFF89CE000BFD52B00087B689A8D38
:1028AC007B68DB8D9BB2D31AA7F8CE307B68DB8DAF
:1028BC009BB2002B00F08E80B7F8CE30002B00F0CE
:1028CC0089807B681B680C33BB63BB6B53E8003F90
:1028DC007B637B6B23F49073C7F8C8307B681B68F1
:1028EC000C33D7F8C8207A643B64396C7A6C41E8B5
:1028FC000023FB63FB6B002BE3D17B681B68143359
:10290C007B627B6A53E8003F3B623B6A23F0010326
:10291C00C7F8C4307B681B681433D7F8C4203A63FB
:10292C00FB62F96A3A6B41E80023BB62BB6A002B7D
:10293C00E3D17B68202283F842207B6800221A6353
:10294C007B681B680C333B613B6953E8003FFB60C1
:10295C00FB6823F01003C7F8C0307B681B680C338E
:10296C00D7F8C020FA61BB61B969FA6941E8002364
:10297C007B617B69002BE3D17B6802225A63B7F839
:10298C00CE301946786800F044F823E0D7F8E430EC
:10299C0003F08003002B09D0D7F8E03003F080035C
:1029AC00002B03D0786800F023F914E0D7F8E4305A
:1029BC0003F04003002B0ED0D7F8E03003F04003B7
:1029CC00002B08D0786800F062F904E000BF02E048
:1029DC0000BF00E000BFE837BD4680BD80B483B0C7
:1029EC0000AF786000BF0C37BD4680BC704780B428
:1029FC0083B000AF786000BF0C37BD4680BC704719
:102A0C0080B483B000AF786000BF0C37BD4680BC8B
:102A1C00704780B483B000AF78600B467B8000BFFA
:102A2C000C37BD4680BC704780B590B000AFF860E5
:102A3C00B9603B601346FB7150E0BB6CB3F1FF3FD8
:102A4C004CD0BB6C002B07D0FEF7F8F802463B6865
:102A5C00D31ABA6C9A4241D2FB681B680C33BB6226
:102A6C00BB6A53E8003F7B627B6A23F4D073FB6341
:102A7C00FB681B680C33FA6B7A633B63396B7A6BBC
:102A8C0041E80023FB62FB6A002BE5D1FB681B6865
:102A9C0014337B617B6953E8003F3B613B6923F056
:102AAC000103BB63FB681B681433BA6B3A62FB61AE
:102ABC00F9693A6A41E80023BB61BB69002BE5D197
:102ACC00FB68202283F84120FB68202283F84220F7
:102ADC00FB68002283F8402003230FE0FB681B688F
:102AEC001A68BB681340BA689A420CBF01230023D2
:102AFC00DBB21A46FB799A429FD000231846403726
:102B0C00BD4680BD80B495B000AF78607B681B6813
:102B1C000C337B637B6B53E8003F3B633B6B23F4D1
:102B2C009073FB647B681B680C33FA6C3A64FB6330
:102B3C00F96B3A6C41E80023BB63BB6B002BE5D10E
:102B4C007B681B6814333B623B6A53E8003FFB61B4
:102B5C00FB6923F00103BB647B681B681433BA6CFC
:102B6C00FA62BB62B96AFA6A41E800237B627B6A4B
:102B7C00002BE5D17B681B6B012B19D17B681B6883
:102B8C000C33FB60FB6853E8003FBB60BB6823F071
:102B9C0010037B647B681B680C337A6CBA617B61B5
:102BAC007969BA6941E800233B613B69002BE5D1A7
:102BBC007B68202283F842207B6800221A6300BFC6
:102BCC005437BD4680BC704780B584B000AF786088
:102BDC007B685B6AFB60FB680022DA85FB6800227D
:102BEC00DA84F868FFF70CFF00BF1037BD4680BDD4
:102BFC0080B485B000AF78607B6893F84130DBB26D
:102C0C00212B3ED17B689B68B3F5805F14D17B6828
:102C1C001B69002B10D17B681B6AFB60FB681B884F
:102C2C001A467B681B68C2F308025A607B681B6AF1
:102C3C009A1C7B681A6208E07B681B6A591C7A68CC
:102C4C0011621A787B681B685A607B68DB8C9BB2BC
:102C5C00013B9BB27A681946D184002B0FD17B685B
:102C6C001B68DA687B681B6822F08002DA607B687C
:102C7C001B68DA687B681B6842F04002DA6000234C
:102C8C0000E0022318461437BD4680BC704780B55F
:102C9C0082B000AF78607B681B68DA687B681B6861
:102CAC0022F04002DA607B68202283F841207868A9
:102CBC00FFF794FE002318460837BD4680BD80B54B
:102CCC008CB000AF78607B6893F84230DBB2222B7B
:102CDC0040F0AE807B689B68B3F5805F17D17B6852
:102CEC001B69002B13D10023FB627B689B6ABB62C0
:102CFC007B681B685B689BB2C3F308039AB2BB6A20
:102D0C001A807B689B6A9A1C7B689A6226E07B68B7
:102D1C009B6AFB620023BB627B689B68B3F5805F98
:102D2C0007D07B689B68002B0AD17B681B69002B42
:102D3C0006D17B681B685B68DAB2FB6A1A7008E024
:102D4C007B681B685B68DBB203F07F03DAB2FB6A5B
:102D5C001A707B689B6A5A1C7B689A627B68DB8D55
:102D6C009BB2013B9BB27A681946D185002B5DD191
:102D7C007B681B68DA687B681B6822F02002DA60CB
:102D8C007B681B68DA687B681B6822F48072DA60E7
:102D9C007B681B685A697B681B6822F001025A61C8
:102DAC007B68202283F842207B6800225A637B6870
:102DBC001B6B012B35D17B6800221A637B681B6867
:102DCC000C337B617B6953E8003F3B613B6923F02B
:102DDC0010037B627B681B680C337A6A3A62FB6176
:102DEC00F9693A6A41E80023BB61BB69002BE5D164
:102DFC007B681B681B6803F01003102B0AD100239F
:102E0C00FB607B681B681B68FB607B681B685B68EE
:102E1C00FB60FB687B689B8D19467868FFF7F9FDB2
:102E2C0002E07868FFF7E3FD002302E0002300E0F6
:102E3C00022318463037BD4680BD000080B584B0F3
:102E4C0000AF78607B681B681B6923F440517B687A
:102E5C00DA687B681B680A431A617B689A687B682E
:102E6C001B691A437B685B691343BB607B681B68F7
:102E7C00DB6823F4B05323F00C037A681268B9684A
:102E8C000B43D3607B681B685B6923F440717B68E0
:102E9C009A697B681B680A435A617B681B682C4AD9
:102EAC00934203D1FEF71AFEF86002E0FEF702FE31
:102EBC00F860FA6813469B0013449A001A447B6826
:102ECC005B689B00B2FBF3F3224AA2FB03235B0972
:102EDC001901FA6813469B0013449A001A447B6844
:102EEC005B689B00B2FBF3F21A4BA3FB02035B097A
:102EFC00642000FB03F3D31A1B013233154AA2FBE7
:102F0C0003235B0903F0F0031944FA6813469B0092
:102F1C0013449A001A447B685B689B00B2FBF3F283
:102F2C000C4BA3FB02035B09642000FB03F3D31AD5
:102F3C001B013233074AA2FB03235B0903F00F0288
:102F4C007B681B680A449A6000BF1037BD4680BD81
:102F5C00003801401F85EB51014B1868704700BFCA
:102F6C004C00002070B500260C4D0D4C641BA410B9
:102F7C00A64209D100F0E4FC00260A4D0A4C641B61
:102F8C00A410A64205D170BD55F8043B98470136F4
:102F9C00EEE755F8043B98470136F2E7203A000873
:102FAC00203A0008203A0008243A0008034602445C
:102FBC00934200D1704703F8011BF9E770B50E4638
:102FCC00054618B183690BB900F048FAAB69AC68D7
:102FDC0013B9284600F042FA2C4B9C4220D16C6865
:102FEC00636EDB0705D4A389980502D4A06D00F0AD
:102FFC00D3FAA38919071DD52369DBB1013EA36858
:10300C0016F8011F013BA36039BB002B38DA2246AE
:10301C000A21284600F048F8013011D00A2511E0A9
:10302C001B4B9C4201D1AC68DAE71A4B9C4208BF9F
:10303C00EC68D5E72146284600F088F80028DDD05A
:10304C004FF0FF35636EDA0705D4A3899B0502D4D4
:10305C00A06D00F0A2FA284670BD002B04DAA2691C
:10306C009A4206DC0A2904D023685A1C2260197083
:10307C00C5E72246284600F017F80130BFD1DFE73C
:10308C000A2523685A1C22601D70DBE7E039000812
:10309C00003A0008C0390008024B01461868FFF7D7
:1030AC008DBF00BF4C000020F8B50E4614460546F7
:1030BC0018B183690BB900F0D1F9214B9C422BD18B
:1030CC006C68A369A360A3891A072FD523696BB316
:1030DC0023692068F6B2C01A63693746834204DC60
:1030EC002146284600F026F930BBA3680130013B8D
:1030FC00A36023685A1C22601E706369834204D04B
:10310C00A389DB0706D50A2E04D12146284600F0F8
:10311C0011F988B93846F8BD0A4B9C4201D1AC680C
:10312C00CFE7094B9C4208BFEC68CAE7214628460A
:10313C0000F00CF80028CBD04FF0FF37EAE700BFC7
:10314C00E0390008003A0008C0390008324B70B56D
:10315C001D6806460C4625B1AB6913B9284600F02C
:10316C007DF92E4B9C420FD16C68A389B4F90C20CD
:10317C0019072CD4DD0611D40923336042F0400327
:10318C004FF0FF30A3813EE0254B9C4201D1AC684F
:10319C00EBE7244B9C4208BFEC68E6E7580712D5D6
:1031AC00616B41B104F14403994202D0304600F006
:1031BC0059FA00236363A38923F02403A38100231A
:1031CC00636023692360A38943F00803A381236907
:1031DC004BB9A38903F42073B3F5007F03D02146C8
:1031EC00304600F0FFF9A089B4F90C2010F001036F
:1031FC000AD00023A36063695B42A361236943B9CE
:10320C0010F08000BAD170BD810758BF6369A3600C
:10321C00F4E70020F7E700BF4C000020E03900087D
:10322C00003A0008C03900088A892DE9F0410546AA
:10323C0010070C4658D44B68002B05DC0B6C002B8C
:10324C0002DC0020BDE8F081E66A002EF9D00023F4
:10325C0012F480522F682B6032D0606DA3895A070C
:10326C0005D56368C01A636B0BB1236CC01A0023BD
:10327C000246E66A2846216AB047431CA38906D158
:10328C0029681D292CD82A4ACA40D60728D50022DD
:10329C0062602269D904226004D5421C01D12B68DA
:1032AC0003B96065616B2F600029CAD004F1440337
:1032BC00994202D0284600F0D5F900206063C1E79E
:1032CC00216A01232846B047411CC7D12B68002B2B
:1032DC00C4D01D2B01D0162B01D12F60B1E7A389CF
:1032EC0043F04003A381ADE70F69002FA9D09307EA
:1032FC0018BF00230E6808BF4B69A6EB07080F60C8
:10330C008B60B8F1000F9CDD43463A462846216A93
:10331C00A66AB047002806DCA3894FF0FF3043F0C3
:10332C004003A3818EE70744A8EB0008E9E700BF40
:10333C000100402038B50B6905460C4613B9002531
:10334C00284638BD18B183690BB900F087F8144BC7
:10335C009C421BD16C68B4F90C30002BEFD0626E20
:10336C00D00704D4990502D4A06D00F015F92846B5
:10337C002146FFF759FF636E0546DA07E0D4A389AF
:10338C009B05DDD4A06D00F008F9D9E7054B9C42F4
:10339C0001D1AC68DFE7044B9C4208BFEC68DAE76C
:1033AC00E0390008003A0008C0390008002310B5C5
:1033BC000446C0E90033C0E904338360818143666D
:1033CC00C2818361194608225C30FFF7EFFD054B83
:1033DC0024626362044BA362044BE362044B2363D9
:1033EC0010BD00BFDD370008FF3700083738000874
:1033FC005B380008014900F0AFB800BF413300084A
:10340C0070B568254A1E55430E4605F1740100F04F
:10341C0075F9044640B10021C0E900160C30A060DB
:10342C0005F16802FFF7C2FD204670BD014800F0AF
:10343C00B3B800BFD4010020014800F0AEB800BF03
:10344C00D4010020014800F0A7B800BFCF01002034
:10345C00014800F0A2B800BFCF01002010B504460F
:10346C00FFF7F0FFA3691BB1BDE81040FFF7F0BFF9
:10347C00C4E912332365134B134A1B68A262A3429F
:10348C0008BF0123204608BFA36100F01FF860604D
:10349C00204600F01BF8A060204600F017F8002230
:1034AC000421E0606068FFF781FF01220921A06818
:1034BC00FFF77CFF02221221E068FFF777FF012360
:1034CC00A361D1E7BC39000801340008F8B5074600
:1034DC00FFF7ACFF1E4B1E68B36913B93046FFF7FC
:1034EC00BDFF4836D6E90134013B03D533680BB335
:1034FC003668F7E7B4F90C50D5B9164B04F15800FF
:10350C00E360656600F047F8FFF796FF082229464E
:10351C00C4E90155C4E904552560A56104F15C00BA
:10352C00FFF744FDC4E90D55C4E912552046F8BD1A
:10353C006834D9E704213846FFF762FF044630604F
:10354C000028D5D1FFF778FF0C233B60EEE700BFD6
:10355C00BC3900080100FFFF2DE9F84306468846F8
:10356C00002700F14804D4E90195B9F1010905D50A
:10357C002468002CF7D13846BDE8F883AB89012BC1
:10358C0007D9B5F90E30013303D029463046C04770
:10359C0007436835E9E770477047704770B50E46CA
:1035AC00B1F90E10144600291D4696B007DA002317
:1035BC002B60B3891A0610D44FF480630EE06A4670
:1035CC0000F06CF90028F2DB019A02F47042A2F5CB
:1035DC0000535A425A412A60EEE7402300202360F0
:1035EC0016B070BD8B8973B59D0706460C4607D582
:1035FC0004F14703236023610123636102B070BDB2
:10360C006A4601ABFFF7CAFF00990546304600F049
:10361C0075F848B9B4F90C309A05EFD423F00303CC
:10362C0043F00203A381E3E70D4BB362A38920604F
:10363C0043F08003A381009B20616361019B5BB11C
:10364C003046B4F90E1000F03BF928B1A38923F0F1
:10365C00030343F00103A381A0890543A581CDE7B2
:10366C000134000838B50546002943D051F8043C14
:10367C000C1F002BB8BFE41800F044F91E4A136865
:10368C00104633B9636014602846BDE8384000F03A
:10369C003FB9A3420AD921686218934201BF1A6844
:1036AC005B685218226063600460EDE71A465B6841
:1036BC000BB1A342FAD911685018A0420BD1206863
:1036CC000144501883421160DED118685B680144D4
:1036DC0011605360D8E702D90C232B60D4E7206823
:1036EC0021188B4201BF19685B680918216063605F
:1036FC005460C9E738BD00BF30010020F8B5CD1CBF
:10370C0025F0030508350C2D38BF0C25002D064679
:10371C0001DBA94203D90C2333600020F8BD00F073
:10372C00F1F821490A6814469CB9204F3B6823B92B
:10373C002146304600F03CF838602946304600F00F
:10374C0037F8431C23D10C233046336000F0E0F8EB
:10375C00E3E723685B1B17D40B2B03D923601C44B2
:10376C00256004E06368A2420CBF0B6053603046D6
:10377C0000F0CEF804F10B00231D20F00700C21A54
:10378C00CCD01B1AA350C9E722466468CCE7C41CF2
:10379C0024F00304A042E3D0211A304600F008F8CC
:1037AC000130DDD1CFE700BF300100203401002013
:1037BC0038B50023054D044608462B60FDF74CF93F
:1037CC00431C02D12B6803B1236038BDD801002003
:1037DC0010B50C46B1F90E1000F0A0F80028ABBFE4
:1037EC00636DA3891B1823F48053ACBF6365A3815D
:1037FC0010BD2DE9F0411F468B890546DB050C46B3
:10380C00164605D502230022B1F90E1000F068F817
:10381C00A389324623F48053A38128463B46B4F94E
:10382C000E10BDE8F04100F017B810B50C46B1F918
:10383C000E1000F055F8431CA38915BF606523F4E6
:10384C00805343F48053A38118BFA38110BDB1F9F9
:10385C000E1000F013B8000038B5044608461146A7
:10386C000022054D2A601A46FCF7C2FE431C02D109
:10387C002B6803B1236038BDD801002038B5002374
:10388C00054D044608462B60FDF7B5F8431C02D1E4
:10389C002B6803B1236038BDD801002038B5002354
:1038AC00064D0446084611462B60FDF7AFF8431C45
:1038BC0002D12B6803B1236038BD00BFD8010020B2
:1038CC0038B50023054D044608462B60FDF7ADF8CE
:1038DC00431C02D12B6803B1236038BDD8010020F2
:1038EC0038B50446084611460022054D2A601A4692
:1038FC00FDF7A5F8431C02D12B6803B1236038BD3A
:10390C00D80100200148FFF747BE00BFD0010020BE
:10391C000148FFF742BE00BFD001002038B5044675
:10392C00084611460022054D2A601A46FDF746F856
:10393C00431C02D12B6803B1236038BDD801002091
:10394C00F8B500BFF8BC08BC9E467047F8B500BF80
:08395C00F8BC08BC9E46704750
:103964005468652073797374656D20697320696E7A
:10397400204D4F4445202731202D204E4F524D419C
:103984004C5F4D4F444527200D000000000000000F
:1039940000000000010203040607080900000000FB
:1039A4000102030402030405060708090A0B0C0DAF
:1039B4000E0F101001020000500000200000000053
:1039C40000000000000000000000000000000000F3
:1039D40000000000000000000000000000000000E3
:1039E40000000000000000000000000000000000D3
:1039F40000000000000000000000000000000000C3
:103A040000000000000000000000000000000000B2
:0C3A1400000000000000000000000000A6
:043A20003101000868
:043A24000D01000888
:103A2800010000000100000001000000010000008A
:103A3800640000000500000003000000030000000F
:103A4800050000000008014000080140000801408E
:103A58000008014000100020004000800A0000001B
:103A68000024F400100000000100000050000020B5
:103A780000000000E0390008003A0008C0390008DA
:103A8800000000000000000000000000000000002E
:103A9800000000000000000000000000000000001E
:103AA800000000000000000000000000000000000E
:103AB80000000000000000000000000000000000FE
:103AC80000000000000000000000000000000000EE
:0400000508000B4D97
:00000001FF
